{
  "_format": "hh-sol-artifact-1",
  "contractName": "Splitwise",
  "sourceName": "contracts/mycontract.sol",
  "abi": [
    {
      "inputs": [
        {
          "internalType": "address",
          "name": "creditor",
          "type": "address"
        },
        {
          "internalType": "uint32",
          "name": "amout",
          "type": "uint32"
        },
        {
          "internalType": "address[]",
          "name": "cycle",
          "type": "address[]"
        }
      ],
      "name": "add_IOU",
      "outputs": [],
      "stateMutability": "nonpayable",
      "type": "function"
    },
    {
      "inputs": [],
      "name": "getAddress",
      "outputs": [
        {
          "internalType": "address",
          "name": "",
          "type": "address"
        }
      ],
      "stateMutability": "view",
      "type": "function"
    },
    {
      "inputs": [
        {
          "internalType": "address",
          "name": "user",
          "type": "address"
        }
      ],
      "name": "getLastActive",
      "outputs": [
        {
          "internalType": "uint256",
          "name": "",
          "type": "uint256"
        }
      ],
      "stateMutability": "view",
      "type": "function"
    },
    {
      "inputs": [
        {
          "internalType": "address",
          "name": "user",
          "type": "address"
        }
      ],
      "name": "getNeighbors",
      "outputs": [
        {
          "internalType": "address[]",
          "name": "",
          "type": "address[]"
        }
      ],
      "stateMutability": "view",
      "type": "function"
    },
    {
      "inputs": [
        {
          "internalType": "address",
          "name": "user",
          "type": "address"
        }
      ],
      "name": "getTotalOwed",
      "outputs": [
        {
          "internalType": "uint32",
          "name": "",
          "type": "uint32"
        }
      ],
      "stateMutability": "view",
      "type": "function"
    },
    {
      "inputs": [],
      "name": "getUsers",
      "outputs": [
        {
          "internalType": "address[]",
          "name": "",
          "type": "address[]"
        }
      ],
      "stateMutability": "view",
      "type": "function"
    },
    {
      "inputs": [
        {
          "internalType": "address",
          "name": "debtor",
          "type": "address"
        },
        {
          "internalType": "address",
          "name": "creditor",
          "type": "address"
        }
      ],
      "name": "lookup",
      "outputs": [
        {
          "internalType": "uint32",
          "name": "",
          "type": "uint32"
        }
      ],
      "stateMutability": "view",
      "type": "function"
    }
  ],
  "bytecode": "0x608060405234801561001057600080fd5b50611378806100206000396000f3fe608060405234801561001057600080fd5b506004361061007c5760003560e01c80636cccff281161005b5780636cccff28146100ed578063713584a61461011d578063738510751461014d578063dd033b8d1461017d5761007c565b8062ce8e3e1461008157806338cc48311461009f578063606ab752146100bd575b600080fd5b610089610199565b6040516100969190610e9d565b60405180910390f35b6100a7610227565b6040516100b49190610ece565b60405180910390f35b6100d760048036038101906100d29190610f29565b61022f565b6040516100e49190610f6f565b60405180910390f35b61010760048036038101906101029190610f29565b610278565b6040516101149190610e9d565b60405180910390f35b61013760048036038101906101329190610f8a565b610345565b6040516101449190610fe9565b60405180910390f35b61016760048036038101906101629190610f29565b6103db565b6040516101749190610fe9565b60405180910390f35b61019760048036038101906101929190611189565b610434565b005b6060600380548060200260200160405190810160405280929190818152602001828054801561021d57602002820191906000526020600020905b8160009054906101000a900473ffffffffffffffffffffffffffffffffffffffff1673ffffffffffffffffffffffffffffffffffffffff16815260200190600101908083116101d3575b5050505050905090565b600033905090565b6000600660008373ffffffffffffffffffffffffffffffffffffffff1673ffffffffffffffffffffffffffffffffffffffff168152602001908152602001600020549050919050565b6060600260008373ffffffffffffffffffffffffffffffffffffffff1673ffffffffffffffffffffffffffffffffffffffff16815260200190815260200160002080548060200260200160405190810160405280929190818152602001828054801561033957602002820191906000526020600020905b8160009054906101000a900473ffffffffffffffffffffffffffffffffffffffff1673ffffffffffffffffffffffffffffffffffffffff16815260200190600101908083116102ef575b50505050509050919050565b60008060008473ffffffffffffffffffffffffffffffffffffffff1673ffffffffffffffffffffffffffffffffffffffff16815260200190815260200160002060008373ffffffffffffffffffffffffffffffffffffffff1673ffffffffffffffffffffffffffffffffffffffff16815260200190815260200160002060009054906101000a900463ffffffff16905092915050565b6000600560008373ffffffffffffffffffffffffffffffffffffffff1673ffffffffffffffffffffffffffffffffffffffff16815260200190815260200160002060009054906101000a900463ffffffff169050919050565b600033905042600660008373ffffffffffffffffffffffffffffffffffffffff1673ffffffffffffffffffffffffffffffffffffffff1681526020019081526020016000208190555042600660008673ffffffffffffffffffffffffffffffffffffffff1673ffffffffffffffffffffffffffffffffffffffff16815260200190815260200160002081905550600460008273ffffffffffffffffffffffffffffffffffffffff1673ffffffffffffffffffffffffffffffffffffffff16815260200190815260200160002060009054906101000a900460ff166105ce576003819080600181540180825580915050600190039060005260206000200160009091909190916101000a81548173ffffffffffffffffffffffffffffffffffffffff021916908373ffffffffffffffffffffffffffffffffffffffff1602179055506001600460008373ffffffffffffffffffffffffffffffffffffffff1673ffffffffffffffffffffffffffffffffffffffff16815260200190815260200160002060006101000a81548160ff0219169083151502179055505b600460008573ffffffffffffffffffffffffffffffffffffffff1673ffffffffffffffffffffffffffffffffffffffff16815260200190815260200160002060009054906101000a900460ff166106db576003849080600181540180825580915050600190039060005260206000200160009091909190916101000a81548173ffffffffffffffffffffffffffffffffffffffff021916908373ffffffffffffffffffffffffffffffffffffffff1602179055506001600460008673ffffffffffffffffffffffffffffffffffffffff1673ffffffffffffffffffffffffffffffffffffffff16815260200190815260200160002060006101000a81548160ff0219169083151502179055505b8373ffffffffffffffffffffffffffffffffffffffff168173ffffffffffffffffffffffffffffffffffffffff160361071357600080fd5b826000808373ffffffffffffffffffffffffffffffffffffffff1673ffffffffffffffffffffffffffffffffffffffff16815260200190815260200160002060008673ffffffffffffffffffffffffffffffffffffffff1673ffffffffffffffffffffffffffffffffffffffff16815260200190815260200160002060008282829054906101000a900463ffffffff166107ad9190611227565b92506101000a81548163ffffffff021916908363ffffffff160217905550600160008273ffffffffffffffffffffffffffffffffffffffff1673ffffffffffffffffffffffffffffffffffffffff16815260200190815260200160002060008573ffffffffffffffffffffffffffffffffffffffff1673ffffffffffffffffffffffffffffffffffffffff16815260200190815260200160002060009054906101000a900460ff1661098e57600260008273ffffffffffffffffffffffffffffffffffffffff1673ffffffffffffffffffffffffffffffffffffffff168152602001908152602001600020849080600181540180825580915050600190039060005260206000200160009091909190916101000a81548173ffffffffffffffffffffffffffffffffffffffff021916908373ffffffffffffffffffffffffffffffffffffffff16021790555060018060008373ffffffffffffffffffffffffffffffffffffffff1673ffffffffffffffffffffffffffffffffffffffff16815260200190815260200160002060008673ffffffffffffffffffffffffffffffffffffffff1673ffffffffffffffffffffffffffffffffffffffff16815260200190815260200160002060006101000a81548160ff0219169083151502179055505b600082511161099c57600080fd5b60008060008373ffffffffffffffffffffffffffffffffffffffff1673ffffffffffffffffffffffffffffffffffffffff16815260200190815260200160002060008673ffffffffffffffffffffffffffffffffffffffff1673ffffffffffffffffffffffffffffffffffffffff16815260200190815260200160002060009054906101000a900463ffffffff1690506000600190505b8351811015610bc757600084600183610a4c919061125f565b81518110610a5d57610a5c611293565b5b602002602001015190506000858381518110610a7c57610a7b611293565b5b602002602001015190506000808373ffffffffffffffffffffffffffffffffffffffff1673ffffffffffffffffffffffffffffffffffffffff16815260200190815260200160002060008273ffffffffffffffffffffffffffffffffffffffff1673ffffffffffffffffffffffffffffffffffffffff16815260200190815260200160002060009054906101000a900463ffffffff1663ffffffff168463ffffffff161115610bb4576000808373ffffffffffffffffffffffffffffffffffffffff1673ffffffffffffffffffffffffffffffffffffffff16815260200190815260200160002060008273ffffffffffffffffffffffffffffffffffffffff1673ffffffffffffffffffffffffffffffffffffffff16815260200190815260200160002060009054906101000a900463ffffffff1693505b505080610bc0906112c2565b9050610a33565b50806000808473ffffffffffffffffffffffffffffffffffffffff1673ffffffffffffffffffffffffffffffffffffffff16815260200190815260200160002060008773ffffffffffffffffffffffffffffffffffffffff1673ffffffffffffffffffffffffffffffffffffffff16815260200190815260200160002060008282829054906101000a900463ffffffff16610c62919061130a565b92506101000a81548163ffffffff021916908363ffffffff1602179055506000600190505b8351811015610da557600084600183610ca0919061125f565b81518110610cb157610cb0611293565b5b602002602001015190506000858381518110610cd057610ccf611293565b5b60200260200101519050836000808473ffffffffffffffffffffffffffffffffffffffff1673ffffffffffffffffffffffffffffffffffffffff16815260200190815260200160002060008373ffffffffffffffffffffffffffffffffffffffff1673ffffffffffffffffffffffffffffffffffffffff16815260200190815260200160002060008282829054906101000a900463ffffffff16610d74919061130a565b92506101000a81548163ffffffff021916908363ffffffff160217905550505080610d9e906112c2565b9050610c87565b505050505050565b600081519050919050565b600082825260208201905092915050565b6000819050602082019050919050565b600073ffffffffffffffffffffffffffffffffffffffff82169050919050565b6000610e0482610dd9565b9050919050565b610e1481610df9565b82525050565b6000610e268383610e0b565b60208301905092915050565b6000602082019050919050565b6000610e4a82610dad565b610e548185610db8565b9350610e5f83610dc9565b8060005b83811015610e90578151610e778882610e1a565b9750610e8283610e32565b925050600181019050610e63565b5085935050505092915050565b60006020820190508181036000830152610eb78184610e3f565b905092915050565b610ec881610df9565b82525050565b6000602082019050610ee36000830184610ebf565b92915050565b6000604051905090565b600080fd5b600080fd5b610f0681610df9565b8114610f1157600080fd5b50565b600081359050610f2381610efd565b92915050565b600060208284031215610f3f57610f3e610ef3565b5b6000610f4d84828501610f14565b91505092915050565b6000819050919050565b610f6981610f56565b82525050565b6000602082019050610f846000830184610f60565b92915050565b60008060408385031215610fa157610fa0610ef3565b5b6000610faf85828601610f14565b9250506020610fc085828601610f14565b9150509250929050565b600063ffffffff82169050919050565b610fe381610fca565b82525050565b6000602082019050610ffe6000830184610fda565b92915050565b61100d81610fca565b811461101857600080fd5b50565b60008135905061102a81611004565b92915050565b600080fd5b6000601f19601f8301169050919050565b7f4e487b7100000000000000000000000000000000000000000000000000000000600052604160045260246000fd5b61107e82611035565b810181811067ffffffffffffffff8211171561109d5761109c611046565b5b80604052505050565b60006110b0610ee9565b90506110bc8282611075565b919050565b600067ffffffffffffffff8211156110dc576110db611046565b5b602082029050602081019050919050565b600080fd5b6000611105611100846110c1565b6110a6565b90508083825260208201905060208402830185811115611128576111276110ed565b5b835b81811015611151578061113d8882610f14565b84526020840193505060208101905061112a565b5050509392505050565b600082601f8301126111705761116f611030565b5b81356111808482602086016110f2565b91505092915050565b6000806000606084860312156111a2576111a1610ef3565b5b60006111b086828701610f14565b93505060206111c18682870161101b565b925050604084013567ffffffffffffffff8111156111e2576111e1610ef8565b5b6111ee8682870161115b565b9150509250925092565b7f4e487b7100000000000000000000000000000000000000000000000000000000600052601160045260246000fd5b600061123282610fca565b915061123d83610fca565b9250828201905063ffffffff811115611259576112586111f8565b5b92915050565b600061126a82610f56565b915061127583610f56565b925082820390508181111561128d5761128c6111f8565b5b92915050565b7f4e487b7100000000000000000000000000000000000000000000000000000000600052603260045260246000fd5b60006112cd82610f56565b91507fffffffffffffffffffffffffffffffffffffffffffffffffffffffffffffffff82036112ff576112fe6111f8565b5b600182019050919050565b600061131582610fca565b915061132083610fca565b9250828203905063ffffffff81111561133c5761133b6111f8565b5b9291505056fea26469706673582212207f2d4adf99f096caa3ad494a3bbe1360c0fcd84a6dc2e06b908042dc8e1e7c1a64736f6c63430008110033",
  "linkReferences": {},
  "deployedLinkReferences": {}
}